:020000040800F2
:1000000000400220F11E0008852100088721000819
:1000100000000000000000000000000000000000E0
:10002000000000000000000000000000892100081E
:1000300000000000000000008B2100088D21000856
:10004000411F0008411F0008411F0008411F000810
:10005000411F0008411F0008411F0008411F000800
:10006000411F0008411F0008411F0008411F0008F0
:10007000411F0008411F0008411F0008411F0008E0
:10008000411F0008411F0008411F0008411F0008D0
:10009000411F0008411F0008411F0008411F0008C0
:1000A000411F0008411F0008411F0008411F0008B0
:0C00B000411F0008411F0008411F00080C
:1000BC0002B4714649084900095C49008E4402BCEF
:1000CC007047C04603B47146490840004900095EB8
:1000DC0049008E4403BC7047002243088B4274D302
:1000EC0003098B425FD3030A8B4244D3030B8B422D
:1000FC0028D3030C8B420DD3FF22090212BA030C36
:10010C008B4202D31212090265D0030B8B4219D316
:10011C0000E0090AC30B8B4201D3CB03C01A524136
:10012C00830B8B4201D38B03C01A5241430B8B427E
:10013C0001D34B03C01A5241030B8B4201D30B0367
:10014C00C01A5241C30A8B4201D3CB02C01A52418E
:10015C00830A8B4201D38B02C01A5241430A8B4251
:10016C0001D34B02C01A5241030A8B4201D30B023A
:10017C00C01A5241CDD2C3098B4201D3CB01C01A54
:10018C00524183098B4201D38B01C01A524143095E
:10019C008B4201D34B01C01A524103098B4201D34C
:1001AC000B01C01A5241C3088B4201D3CB00C01AB9
:1001BC00524183088B4201D38B00C01A5241430831
:1001CC008B4201D34B00C01A5241411A00D2014656
:1001DC00524110467047FFE701B5002000F0F0F8DF
:1001EC0002BDC0460029F7D076E7704703460B43A3
:1001FC007FD4002243088B4274D303098B425FD314
:10020C00030A8B4244D3030B8B4228D3030C8B423F
:10021C000DD3FF22090212BA030C8B4202D3121225
:10022C00090265D0030B8B4219D300E0090AC30BFA
:10023C008B4201D3CB03C01A5241830B8B4201D3A7
:10024C008B03C01A5241430B8B4201D34B03C01A90
:10025C005241030B8B4201D30B03C01A5241C30A08
:10026C008B4201D3CB02C01A5241830A8B4201D379
:10027C008B02C01A5241430A8B4201D34B02C01A63
:10028C005241030A8B4201D30B02C01A5241CDD208
:10029C00C3098B4201D3CB01C01A524183098B4253
:1002AC0001D38B01C01A524143098B4201D34B013C
:1002BC00C01A524103098B4201D30B01C01A52419F
:1002CC00C3088B4201D3CB00C01A524183088B4226
:1002DC0001D38B00C01A524143088B4201D34B000F
:1002EC00C01A5241411A00D2014652411046704781
:1002FC005DE0CA0F00D04942031000D34042534086
:10030C0000229C4603098B422DD3030A8B4212D345
:10031C00FC22890112BA030A8B420CD38901921177
:10032C008B4208D3890192118B4204D389013AD0B4
:10033C00921100E08909C3098B4201D3CB01C01A89
:10034C00524183098B4201D38B01C01A524143099C
:10035C008B4201D34B01C01A524103098B4201D38A
:10036C000B01C01A5241C3088B4201D3CB00C01AF7
:10037C00524183088B4201D38B00C01A5241D9D20F
:10038C0043088B4201D34B00C01A5241411A00D290
:10039C000146634652415B10104601D34042002B8C
:1003AC0000D54942704763465B1000D3404201B50B
:1003BC00002000F005F802BD0029F8D016E77047C0
:1003CC007047C046002B11D1002A0FD1002900D153
:1003DC00002802D00021C943081C07B4024802A11E
:1003EC004018029003BDC046D9FFFFFF03B4684616
:1003FC0001B5029803F0B6F9019B9E4602B00CBC05
:10040C007047C04610B5002903D100F007F8203022
:10041C0002E0081C00F002F810BDC0461C210123AC
:10042C001B04984201D3000C10391B0A984201D3CB
:10043C00000A08391B09984201D30009043902A2A9
:10044C00105C40187047C046040302020101010110
:10045C00000000000000000070B5104B050019787A
:10046C00002901D1012070BDFA208000FFF734FE75
:10047C000B4B01001868FFF72FFE00F0C1FA041EA9
:10048C00F0D1032DEED8020001202900404200F0EB
:10049C008DFA044B20001D60E5E7C04600000020EB
:1004AC0008000020040000208023084A5B0011682B
:1004BC0010B50B4303201360FFF7CEFF041E03D1CE
:1004CC0001F03AFD200010BD0124FBE700200240A2
:1004DC00034A044B11681B785B1813607047C046C5
:1004EC007C00002000000020014B18687047C046BB
:1004FC007C00002070B50400FFF7F6FF0500631CBC
:10050C0002D0044B1B78E418FFF7EEFF401BA0420F
:10051C00FAD370BD00000020034A044913680B4055
:10052C00034313607047C04600000140FFF9FFFF12
:10053C0080684007C00F70470023F0B585B00400F9
:10054C0001250393984200D1B7E0856D9D4205D1FA
:10055C0001F00CFD23005433E5651D7080232668E3
:10056C005B05B2681A4200D1AAE0B3680025DB0033
:10057C0007D410230125A26D1343A365E36D2B4310
:10058C00E3653000FFF7D4FF1022A36D1340034343
:10059C0000D0D0E0A36D6A4A1A4002231343A3652E
:1005AC0023689A68D20766D4227EA07E9203667E68
:1005BC00276B94464203A168F6030192002F01D0E9
:1005CC0080277F01E26811436246114331434203A5
:1005DC0011432269002A00DB87E0520056082200F2
:1005EC002C32127852000A43611CC97F3A433243C1
:1005FC00012905D1002800D07AE0802149020A4364
:10060C00616A002905D0E02040000140A06A014346
:10061C000A43D9684B48E76C01400A43DA60220070
:10062C0061683C3212788E0FB60794463743012A24
:10063C0009D1606C226C0243A06C3A4302436046C1
:10064C003243104307001A693F48024080203A4366
:10065C001A614A005208C00582420CD08022120650
:10066C00914208D039483A4E02683240F026B6031F
:10067C00314011430160072070265A69616B824337
:10068C000A435A615869A26BB043120102435A6182
:10069C002269002A34D1986A103A02439A620722DE
:1006AC005B69134099423AD10023E365A36D043A88
:1006BC0093431A0001231343A365280005B0F0BD32
:1006CC00B26824490A401343B360234B234918688A
:1006DC00FFF702FD013040000390039B002B00D17B
:1006EC0043E7039B013B0393F7E78026B60376E7CA
:1006FC002020A66D3043A065E06D0143E1657FE7E6
:10070C00802080038242CAD11C209A6AE269013A95
:10071C00920002402C3890400200206EBDE712225D
:10072C00A36D012593431A0010231343A365E36DB6
:10073C002B43E365C1E7A36D01251A43A265BCE712
:10074C00FDFEFFFF0102FEFF02FCFF1F0827014018
:10075C00FFFFC3FFE8FFFF6F08000020400D030000
:10076C000023F0B587B00593030054331A780500C5
:10077C000E000220012A00D1C3E001241C7028685D
:10078C00FFF7D6FE002800D0F9E08022736812062D
:10079C000193042394462F69019A9F433368022ADC
:1007AC0000D1C2E05903490B2A68029167450FD169
:1007BC00906A01439162B16854691802734E01400A
:1007CC003140844321435161002B64DB002095E0D0
:1007DC001F21019F0F40BC460F2761468F40F943F4
:1007EC000391296EB9430F000299002914D1980E78
:1007FC001F31084061468840019907438908E86920
:10080C0001312F668142D6D864469900090FA14068
:10081C00906A039C2040CCE72342EBD102212000BC
:10082C000B42E7D1080049180B42E3D101301907FC
:10083C00E0D40130D906DDD401309906DAD4013088
:10084C005906D7D401301906D4D40130D905D1D4E6
:10085C0001309905CED401305905CBD4013019059E
:10086C00C8D40130D904C5D401309904C2D40130A4
:10087C005904BFD401301904BCD40130D903B9D404
:10088C0001309903B6D480211800C90208400B42EC
:10089C00B0D01220AEE7E0243D4A3E481168640413
:1008AC000C4083421AD180231B0419428ED111684B
:1008BC003948014021431943384B116018683849B5
:1008CC00FFF70AFC431C0C2058430590059B002B9A
:1008DC0000D17BE7059B013B0593F7E73148834249
:1008EC0011D18026080076043040314200D06DE7EB
:1008FC001168294B194021430E43166000235435CF
:10090C002B7007B0F0BD2848834200D05EE78023EF
:10091C000800DB031840194200D057E711681E4E3F
:10092C00314021430B431360E8E7674505D1286844
:10093C005903826A490B8A438262002B00DB45E72C
:10094C00134A14481168834208D1A02310685B0431
:10095C001940114B03401943116037E7114883428A
:10096C0003D1C02310681B04F2E70F48834200D068
:10097C002CE7C0204004014013680748EAE7202315
:10098C00AA6D20001343AB65B8E7C04600FFFF0714
:10099C0008270140001000B0FFFF3FFE08000020B8
:1009AC00400D0300004000B8002000B430B5FF2516
:1009BC0003242A000440E400A24089012940D243C8
:1009CC00A140C3B200280ADBC0240B4B8008800076
:1009DC00C018A40003591A401143015130BD0F2017
:1009EC000340083B05489B089B001B18D869024034
:1009FC001143D961F2E7C04600E100E000ED00E0F0
:100A0C008022431E5204012093420DD2C021074A7A
:100A1C0007485360036A09061B021B0A0B43036257
:100A2C0000200723906013607047C04610E000E080
:100A3C0000ED00E0544AF0B58218541EA241002388
:100A4C0087B0043205920A681400DC4001D107B06B
:100A5C00F0BD01242500A4469D4014002C400294B6
:100A6C002A4200D18EE003244A685E0001922240A3
:100A7C00B440E4430394541E64452AD88768039C0D
:100A8C002740CC68B4403C43674684604468AC4320
:100A9C002500019C24093C409C402C434460C568C3
:100AAC00039C25408C68B4402C43C460022A12D1AC
:100ABC00DC080725A4000419276A04940F241D40A0
:100ACC00AD00AC40A7430C69AC402743049C2762A3
:100ADC0001E0032AE3D1B2400468039D25402A4378
:100AEC000260C022019C920214424BD003261D00CE
:100AFC003540B5400F27AF40244A9C08A400A418E9
:100B0C00226EBA43A0279446FF050022B8420CD0AF
:100B1C001F4F0132B84208D01E4F0132B84204D0E8
:100B2C001D4F3200B84200D0059AAA4065462A43B0
:100B3C002266164C029A2668029D019FD2433543C9
:100B4C00FF0201D43500154025606668029D019FA7
:100B5C003543BF0201D43500154065600F4C029D32
:100B6C00E66F019F3543BF0301D435001540E5679F
:100B7C000B4C029EE56F019F2E43FF0301D41540E1
:100B8C002E00E66701335EE700F0FFAF001802406D
:100B9C000004005000080050000C005008180240DF
:100BAC0004180240002A01D0816170478162FCE781
:100BBC00426913000B401B04914319438161704738
:100BCC0070B504000120002C3FD0250041352B7856
:100BDC00DAB2002B05D12300403320001A7001F04B
:100BEC00F3F9242301212B702368E0681A68A668A6
:100BFC008A431A6061681A4A0A401A619968194A4C
:100C0C0011409960012821D180210902314399605A
:100C1C005868154901435960D96800200A40DA60C8
:100C2C00616922690A43A16909020A43DA60216AEF
:100C3C00E2690A431A60012219680A431A602023E8
:100C4C0060642B7020634234207070BD84210902D3
:100C5C00314399600228DBD1802109015960D7E723
:100C6C00FFFFFFF0FF7FFFFF00800002F0B50400E4
:100C7C004134227803000F000220D6B2202A18D16A
:100C8C001D0040352A78012A13D0242222701B68BB
:100C9C00233A1968074891431960196801400020EC
:100CAC00196019683943196019680A431A6026706B
:100CBC002870F0BDFFEFFFFF0200F0B54132147851
:100CCC000300E5B20220202C17D11C0040342678FA
:100CDC00012E12D0223010701B6823381E68074F6B
:100CEC0086431E601E6809023E4031431960196834
:100CFC0008431860002015702070F0BDFFF0FFFF56
:100D0C0010B5114C1149236802000B4003432360BA
:100D1C00802300209B009A420ED10D4B0D49186880
:100D2C0006235843FFF7D8F98022431CD20061698F
:100D3C0008001040114200D110BD002B01D0013B26
:100D4C00F5E70320F8E7C04600700040FFF9FFFF0D
:100D5C000800002040420F00F0B5040085B00028C8
:100D6C0027D00368DB0714D423689B0762D423685D
:100D7C001B0700D5C7E023685B0700D5F9E02368A3
:100D8C009B0600D568E1236A002B00D0A7E1002068
:100D9C0029E03822BC4DAB681340EA68102B0AD10D
:100DAC00D243930709D12B689B03DDD56368002BD5
:100DBC00DAD1012017E0082BF5D0802263685202AB
:100DCC00934212D12A6813432B60FFF78DFB8027C7
:100DDC000600BF022B683B42C6D1FFF785FB801B88
:100DEC006428F7D9032005B0F0BDA021C9028B42BD
:100DFC0008D180232968DB020B432B602B681A4334
:100E0C002A60E2E72A68A1490A402A602A68A049B8
:100E1C000A402A60002BD8D1FFF766FB802706001A
:100E2C00BF022B683B429FD0FFF75EFB801B642800
:100E3C00F7D9D7E73823944DAA681340EA68102BEA
:100E4C0028D103210A40022A26D12A68520502D54C
:100E5C00E268002AADD0696862698E4812020140CE
:100E6C000A436A60002B0DD12B688B4A1340226910
:100E7C0013432B602B68894A9B045B0FDA401300E9
:100E8C00874A1360874B1868FFF7E6FA002800D1F1
:100E9C006DE78EE7002BD8D0E368002B20D02B68B1
:100EAC007D4A802713402269FF0013432B60802367
:100EBC002A685B0013432B60FFF716FB06002B68B8
:100ECC003B4207D06A68636972491B020A401343AC
:100EDC006B604CE7FFF708FB801B0228EFD981E71A
:100EEC002B68714A802713402B60FFF7FDFA060030
:100EFC00FF002B683B4200D139E7FFF7F5FA801B66
:100F0C000228F6D96EE738215F4B9A681D000A401B
:100F1C00182A08D11B6E9B0700D42CE7A369002B61
:100F2C0000D028E745E7A2690123002A10D02A6ED9
:100F3C00022713432B66FFF7D7FA06002B6E3B42B2
:100F4C0000D018E7FFF7D0FA801B0228F6D949E742
:100F5C002A6E02279A432A66FFF7C6FA06002B6E02
:100F6C003B4200D107E7FFF7BFFA801B0228F6D9F6
:100F7C0038E73821444B9A681D000A40202A08D1D2
:100F8C00DB6D9B0700D4FAE6A368002B00D0F6E6D5
:100F9C000FE780220021DB6B52050091134208D130
:100FAC00EB6B1343EB63EB6B13400393039B01233A
:100FBC00009380273D4E7F0033683B4215D0A368D9
:100FCC00012B22D1EA6D1343EB65FFF78DFA022753
:100FDC000600EB6D3B4238D0009B012B00D0CEE6D7
:100FEC00EB6B334A1340EB63C9E633683B43336026
:100FFC00FFF77AFA019033683B42E0D1FFF774FABD
:10100C00019BC01A0228F6D9ECE6EA6D052B05D136
:10101C00013B1343EB65EA6D0123D4E701218A43BD
:10102C00EA65EA6D03318A43EA65002BCDD1FFF7FF
:10103C005BFA02270600EB6D3B42CDD0FFF754FA6A
:10104C001C4B801B9842F6D9CCE6FFF74DFA194B96
:10105C00801B9842BDD9C5E6E3690B4D002B2BD004
:10106C0080232A68DB0313432B60FFF73DFA8027AC
:10107C0006003F042B683B4200D084E6FFF734FAAD
:10108C00801B0228F6D9ADE600100240FFFFFEFFE0
:10109C00FFFFFBFFFF80FFFFFFC7FFFF0024F400F3
:1010AC000800002004000020FFFEFFFF007000403D
:1010BC00FFFFFFEF881300002B684E4A8027134078
:1010CC002B60FFF711FA06003F042B683B4200D15E
:1010DC0059E6FFF709FA801B0228F6D982E6382078
:1010EC00454A916815000140102955D0434A022BFE
:1010FC003AD12B68802713402B60FFF7F5F90600D7
:10110C00BF042B683B4229D1A16A636AEA680B438E
:10111C003B4980260A401343226BB6041343626B8F
:10112C001343A26B1343E26A12021343EB60802356
:10113C002A685B0413432B608023EA685B05134326
:10114C00EB60FFF7D1F904002B68334200D01EE6A8
:10115C00FFF7CAF9001B0228F6D943E6FFF7C4F9DA
:10116C00801B0228CDD93DE62B68802613402B60CE
:10117C00FFF7BAF90400B6042B681800304033426C
:10118C0004D1EB681F4A1340EB602CE6FFF7ACF977
:10119C00001B0228F0D925E61800012B00D122E60D
:1011AC00D3680322616A1A408A4200D001E6702299
:1011BC00A16A1A408A4200D0FBE5FE21E26AC9010D
:1011CC0019401202914200D0F3E5F822216B9203F0
:1011DC001A408A4200D0ECE5E022616B12051A40FD
:1011EC008A4200D0E5E5A26B5B0F5B07934200D10E
:1011FC00CDE5DEE5FFFFBFFF00100240FFFFFFFE65
:10120C008C80C111FCFFFEEE38231E4A70B591682C
:10121C001400194205D113681B489B045B0FD8407E
:10122C0070BD91681940082927D091681940102980
:10123C0017D1D368D168DB437F22E5684906490F93
:10124C002D0A013115409B0709D11048FEF744FFC8
:10125C00E1686843490F0131FEF73EFFE0E70A48B9
:10126C00F4E791681940202909D0926800201340B6
:10127C00182BD5D1FA20C001D2E70448D0E7802042
:10128C000002CDE7001002400024F40000127A00A6
:10129C00F7B505000E00002801D10120FEBD07277F
:1012AC004A4C23683B408B422AD329688B073BD49A
:1012BC00CB0748D4072723683B40B3420AD923689D
:1012CC00BB4333432360FFF70FF9019023683B4086
:1012DC00B3426BD12B683E4C5B076FD4FFF794FF86
:1012EC00A3683C4A1B051B0F9B009B581F221340F5
:1012FC00D840394B1860394B1868FFF7ADF8CDE77B
:10130C002368BB430B432360FFF7EEF8019023687F
:10131C003B40B342C9D0FFF7E7F8019BC01A304BF2
:10132C009842F4D90320B9E7294A4B0704D5E023A6
:10133C009068DB010343936093682A480340A868D4
:10134C0003439360B4E76A68214F012A19D13B68C3
:10135C009B03A2D50721BB688B431343BB60FFF7EC
:10136C00C3F801903823BA681A406B68DB009A42C4
:10137C00A0D0FFF7B9F8019BC01A194B9842F1D9CC
:10138C00D0E7022A03D13B689B01E3D485E7002A0E
:10139C0003D13B685B05DDD47FE70223032A03D12D
:1013AC00396E1942D6D178E7F96DFAE7FFF79CF858
:1013BC00019BC01A0A4B984288D9B3E7A3680A4A22
:1013CC001340EA681343A36088E7C046002002403C
:1013DC0000100240403900080800002004000020E2
:1013EC0088130000FFF0FFFFFF8FFFFF064B074A3B
:1013FC009B685B045B0F9B009B581F221340044AA5
:10140C001068D8407047C046001002408039000870
:10141C0008000020F0B504002368002085B09B0371
:10142C003CD58022974D5205EB6B0090134208D1AE
:10143C00EB6B1343EB63EB6B13400393039B0123A5
:10144C0000938027904E7F0033683B433360FFF757
:10145C004BF8019033683B4212D0EA6DC023110067
:10146C009B008A4E19401A4203D0236C994200D03B
:10147C00E9E0EB6D00201E40236C1E43EE6506E098
:10148C00FFF732F8019BC01A0228E3D90320009B16
:10149C00012B03D1EB6B7E4A1340EB632368DA0715
:1014AC0006D5032577494A6DAA4365682A434A65E0
:1014BC009A0706D50C2573494A6DAA43A5682A4399
:1014CC004A655A0706D530256E494A6DAA43E56828
:1014DC002A434A65DA0606D56A496E4D4A6D2A409A
:1014EC0025692A434A65DA0406D56649674D4A6D73
:1014FC002A4065692A434A659A0506D56149664DB5
:10150C004A6D2A40A56A2A434A655A0506D55D49A3
:10151C00624D4A6D2A40E56A2A434A659A0606D509
:10152C0058495F4D4A6D2A40A5692A434A655A06B7
:10153C0006D554495B4D4A6D2A40E5692A434A65F4
:10154C005A040FD54F49256B4A6D920092082A43D5
:10155C004A658022D205954204D18022CD68520280
:10156C002A43CA601A0306D5402546494A6DAA4348
:10157C00656B2A434A659A020FD542494A4E4A6D19
:10158C00A56B32402A434A658022D203954204D18E
:10159C008022CD6852042A43CA605A020DD5394DB7
:1015AC00424E696DE26B31401143696580214904FB
:1015BC008A4202D1E9680A43EA601A050DD503266E
:1015CC003049256A8A6DB2432A438A65012D04D1BC
:1015DC008022CD6852022A43CA609A040DD50C268B
:1015EC002849656A8A6DB2432A438A65042D04D161
:1015FC008022CD6852022A43CA6080256D042B429A
:10160C000DD02049264F8A6D666C3A4032438A656C
:10161C0080229201964202D1CA681543CD609B018B
:10162C000FD5184AA16C936D184C23400B4393654E
:10163C0080235B00994204D18023D1685B040B4367
:10164C00D36005B0F0BD8023EA6DE86D11005B023C
:10165C000343EB65EB6D164831400340EB65E965E0
:10166C00D30700D405E7FEF73FFF07000222EB6D1E
:10167C00134200D0FDE6FEF737FF0E4BC01B98421D
:10168C00F4D903E70010024000700040FFFCFFFF9C
:10169C00FFFFFFEFFFF3FFFFFFFFF3FFFFFFCFFFA6
:1016AC00FFCFFFFFFF3FFFFFFFFFBFFFFFFFFFFE6F
:1016BC00FFFFFEFF88130000F8B504000120002C8A
:1016CC0067D0636A002B65D1822261685200914217
:1016DC0000D0E36100232500A3625D352B78DAB2DC
:1016EC00002B05D123005C3320001A7000F0B0FCF5
:1016FC00022340212B702268E56813688B43E0219C
:10170C001360C90000238D4248D8802040018D42CF
:10171C0000D0A362822366685B0033408426A768EE
:10172C0036023E40334302262769A1693E403343CB
:10173C0001266769B44637403B438027BF000F4002
:10174C003B433827E669090C37403B438027266A20
:10175C0037403B438027A66ABF0137403B431360A9
:10176C0010230827666A3340666B37403B43F027EB
:10177C003F013D401D430423194029430843506059
:10178C00D369084900200B40D361634620665D3461
:10179C002370F8BD0023236163619BE7F0211800DF
:1017AC000901B4E7FFF7FFFFF8B504002569A1684C
:1017BC00036829436569C269294318689E4D114322
:1017CC0028400143196059689C48A5690140E068AC
:1017DC0001439B485960834204D09A498B4201D003
:1017EC00216A0D439968984E314029430F25996021
:1017FC00D96AA943656A2943D96294498B4216D1A7
:10180C000321934B00205B6D0B40013B9149022B54
:10181C0015D980231B029A4200D0A7E0082821D8B2
:10182C00FEF746FCDD20A220D0202020E2008A49D1
:10183C008B4206D10C21864B5B6D0B408749C85CF3
:10184C00E7E787498B4217D130208149496D014028
:10185C00202900D1B9E007D8002900D1E2E01029F5
:10186C0000D1ABE001204BE03029FBD180200002FD
:10187C00824200D08AE0B7E07A498B4200D1AAE0DC
:10188C0079498B4200D1A6E078498B4200D1A2E085
:10189C00834217D1C02280216D4B12015B6D09016F
:1018AC0013408B4232D008D8002B24D08022D20097
:1018BC009342D7D1FFF7A8FC1FE09342D2D18026E8
:1018CC00360224E05F4901208B4219D1C0208025CB
:1018DC005F498000496DAD000140A94216D007D880
:1018EC00002900D19EE080235B009942E2D0B9E749
:1018FC008142E4D0B6E7FFF779FD061E07D1002040
:10190C005B4BA36600236367A367F8BD594E636AFC
:10191C00594A5B009F5A30003900FEF7DDFB032368
:10192C0065686B4383429DD82B0383429AD3002373
:10193C003A0030001900FEF745FD0027060E0B0299
:10194C00334302026E0892197B41100019002A00E1
:10195C003B00FEF737FD494BC218494B9A4200D960
:10196C0080E72368D860CAE7424A3DE0082800D9DE
:10197C0078E7FEF7A7FB1B0077FF2E0077FF200010
:10198C0077FF77FF77FF090080200002636A3A4AED
:10199C005B00995AFEF7A0FB65686B08C01829001C
:1019AC00FEF79AFB0200374B103AD7E7FFF71EFD04
:1019BC000028A4D0EAE7FFF727FCF9E780231B02F5
:1019CC009A42F8D1FFF720FC0BE080231B029A42CD
:1019DC00CAD02848DAE780231B029A42E6D1FFF7E7
:1019EC0005FD021E00D18AE7636A23495B001000E3
:1019FC00595AFEF771FB656840006B08C018290046
:101A0C00FEF76AFB02001F4B103A9A4200D929E7F5
:101A1C000F23020000079A4393B2400F2268184329
:101A2C00D0606CE707498B4200D164E7802300202B
:101A3C001B029A429DD1D2E7F369FFCFFFCFFFFF84
:101A4C000080004000840040FFF4FF11003801408A
:101A5C000010024008390008004400400B3900080F
:101A6C0000480040004C004000500040003C014049
:101A7C00010001000024F4001839000800FDFFFFEC
:101A8C00FFFC0F00EFFF0000836A30B5DA0706D5C4
:101A9C000168284C4A682240C46A22434A609A076B
:101AAC0006D50168244C4A682240046B22434A60E4
:101ABC005A0706D50168214C4A682240446B2243E0
:101ACC004A601A0706D501681D4C4A682240846B8F
:101ADC0022434A60DA0606D501681A4C8A6822400D
:101AEC00C46B22438A609A0606D50168164C8A6834
:101AFC002240046C22438A605A0610D50168134DAB
:101B0C004A68446C2A4022434A6080225203944221
:101B1C0005D14A680E4C2240846C22434A601B0655
:101B2C0006D502680B4953680B40C16C0B435360DC
:101B3C0030BDC046FFFFFDFFFFFFFEFFFFFFFBFFB9
:101B4C00FF7FFFFFFFEFFFFFFFDFFFFFFFFFEFFF59
:101B5C00FFFF9FFFFFFFF7FFF7B5802704000D0085
:101B6C00160001933F012268D3692B405B1B59423D
:101B7C004B41B34201D000202AE0089B0133F3D043
:101B8C00FEF7B2FC019BC01A089B984201D8002BAF
:101B9C001FD1EFF31080012282F310882168204DB1
:101BAC000B682B400B6080F31088EFF3108082F3EE
:101BBC00108821688B6893438B6080F31088220017
:101BCC002023883213605360002303208434237055
:101BDC00FEBD042123681A680A42C4D0DA693A426D
:101BEC00C1D01F62EFF31080012282F310882168AC
:101BFC000B4D0B682B400B6080F31088EFF31080BB
:101C0C0082F3108821688B6893438B6080F3108873
:101C1C00220020238832136053609360D4E7C046BF
:101C2C005FFEFFFFF0B51600020085B0883203930B
:101C3C00136804000D000220202B46D10138002926
:101C4C0043D0002E41D08023A1685B01994204D17E
:101C5C002369002B01D1054237D123000021903399
:101C6C00196021231360FEF73FFC230054331E80C0
:101C7C0002331E8002938023A268070000265B01BA
:101C8C009A4204D12369B34201D12E001D002300D6
:101C9C0056331B889AB2002B0CD1039B4021009326
:101CAC0020003B00FFF758FF00280DD1202388347B
:101CBC0023600AE0039B0022009380213B0020005C
:101CCC00FFF74AFF002802D0032005B0F0BD2268C0
:101CDC00002D0BD133880236DB05DB0D9362029BA2
:101CEC00029A1B88013B9BB21380D0E72B780135FD
:101CFC009362F4E7030073B50026040090331E6072
:101D0C00FEF7F2FB236805001B681B0719D4236838
:101D1C001B685B070AD58021104B00220093200022
:101D2C002B00C903FFF718FF002815D12200002053
:101D3C002023883213605360E0662067843420705F
:101D4C000BE08021054B3200009389030300200037
:101D5C00FFF702FF0028DAD0032076BDFFFFFF015A
:101D6C0070B5041E01D1012070BD050088352B68AB
:101D7C00002B04D102008432137000F09BF9242351
:101D8C00012122682B60136820008B431360FFF73E
:101D9C000BFD0128E7D0A36A002B02D02000FFF72F
:101DAC0073FE236807495A6820000A402A215A60AA
:101DBC009A688A439A60012219680A431A60FFF7ED
:101DCC0099FFD1E7FFB7FFFFF8B5436E0400002B76
:101DDC0002D10D4B8366F8BD03680C4E9F689B685F
:101DEC000B4D5B0FF05CE95CC000FEF7FFF92300C4
:101DFC006A3318803B015B0FF05CE95CC000FEF7B6
:101E0C00F5F968342080E6E7010001003839000854
:101E1C003039000870B504008434227803000220A5
:101E2C00012A11D01D002422012688352A601A6847
:101E3C0011681068B04310600448014000205866D7
:101E4C00202311602B60207070BDC046FFFFFFDFA8
:101E5C00F8B5050084352B7804000A000220012B0C
:101E6C0018D0260024230138287088363360236864
:101E7C001F6819688143196099682000C900C90856
:101E8C0011439960FFF7A0FF236800201F602023F7
:101E9C0033602870F8BD0000F8B5050084352B7848
:101EAC0004000A000220012B18D02600242301383C
:101EBC0028708836336023681F681968814319605D
:101ECC00996807480140114320009960FFF77CFF97
:101EDC00236800201F60202333602870F8BDC046A3
:101EEC00FFFFFFF10D48854600F04EF90C480D49F7
:101EFC000D4A002302E0D458C4500433C4188C4259
:101F0C00F9D30A4A0A4C002301E013600432A242BE
:101F1C00FBD300F0D9FA00F0BDFAFEE70040022036
:101F2C0000000020700000204C3A000870000020D7
:101F3C00D4020020FEE7000007B501200A4B196C03
:101F4C000143196480211A6C490502400092009AE1
:101F5C00DA6B7F300A43DA63DB6B80000B40019352
:101F6C00019BFEF7D9FA07BD0010024010B5040022
:101F7C0088B01422002103A800F0CAFA104B226882
:101F8C009A421BD180200F4B4003196C01431964FA
:101F9C001A6C02400192019A0122596BA020114344
:101FAC0059635B6B03A913400293029B03230493B5
:101FBC000023C00503920593FEF73CFD08B010BD4D
:101FCC00002401400010024010B504009AB0142205
:101FDC00002102A800F09CFA4C22002107A800F076
:101FEC0097FA184B22689A4229D140230793002371
:101FFC0007A80E93FFF70EFA002801D000F002F9A3
:10200C000221114C1148626B0A436263636B0B40F3
:10201C000093009B18230293063B0393002302A911
:10202C000493059308330693FEF704FD8021E26BBD
:10203C00C9030A43E263E36B0B400193019B1AB0A3
:10204C0010BDC04600580040001002400004005073
:10205C0010B5040088B01422002103A800F058FA2F
:10206C00124B22689A421ED18020114B4001196CF0
:10207C000143196401211A6C02400192019A5A6BB6
:10208C00A0200A435A635B6BC0050B400293029B72
:10209C00E0230393DE3B0493002303A905930693EB
:1020AC000793FEF7C7FC08B010BDC04600300140D6
:1020BC000010024010B504009CB01422002104A8AA
:1020CC0000F026FA4C22002109A800F021FA23681E
:1020DC00254A934229D101230993002309A80A9385
:1020EC00FFF798F9002801D000F08CF880201F4BE6
:1020FC00C001196C014319641A6C02400092009AD9
:10210C000222596B114359635B6B05921340019387
:10211C00019BC0230493002306930793144804A93E
:10212C000893FEF787FC1CB010BD124A9342FAD1FB
:10213C0080200E4B8000D96B0143D963DA6B0240CF
:10214C000292029A0222596B114359635B6B0592FE
:10215C0013400393039BC0239B000493002306931B
:10216C0007930833DAE7C0460038014000100240FC
:10217C0000040050003C0140FEE7FEE7704770474A
:10218C0010B5FEF7A5F910BD704710B594B03C2200
:10219C00002105A800F0BCF91022002101A800F0D4
:1021AC00B7F980208000FEF7ABFD80235B0008931D
:1021BC00002309930F930833109380239B021193F0
:1021CC0080239B0412938023022440229B0505A8A4
:1021DC0005940A920D940E941393FEF7BDFD0028FE
:1021EC0001D072B6FEE7072303900490210001A8EA
:1021FC0001930294FFF74CF8002801D072B6FEE769
:10220C0014B010BD72B6FEE7F0B589B0FEF74CF90C
:10221C00FFF7BBFF1422002103A800F079F902207C
:10222C00042701268024804B2402596B7F4D0143E7
:10223C0059635A6B210002400092009A5A6B7C48F9
:10224C003A435A635A6B3A400192019A5A6B3243A1
:10225C005A635B6B002233400293029BFEF7A2FC95
:10226C00A02029000022C005FEF79CFC00222021A2
:10227C007048FEF797FC039400246D4803A904965C
:10228C0005940694FEF7D6FBA02003A9C005039580
:10229C00049605940694FEF7CDFB2023654803A90C
:1022AC000393049605940694FEF7C4FB0C222100BC
:1022BC0003A800F02DF9604D604B28002B608023A3
:1022CC00DB056B60AB19DC772B002C331C702B00FF
:1022DC002C833C33AC60EC602C616F61AC76EE61AE
:1022EC006C62AC622C636C63AC631C70EC64FEF7C8
:1022FC0023F9A04201D072B6FEE70490059003A921
:10230C0028000396FEF72CFA002801D072B6FEE7DF
:10231C004B4C4C4BA06023604B4B20616061A06127
:10232C00E061206220006360E660FEF749FC011E5C
:10233C0001D072B6FEE72000FEF798FC011E01D01A
:10234C0072B6FEE72000FEF7B7FC031E01D072B692
:10235C00FEE73E483E4A83600260822252004260A1
:10236C00E022D200C260802203614361C361036238
:10237C00436283620363082392008261FA3AFF3A54
:10238C00C2624363FFF798F9002801D072B6FEE7EA
:10239C00304C314BA0602360E1235B0263600C2363
:1023AC00E0602061A061E06120626062A0622000B8
:1023BC006361FFF7D5FC011E01D072B6FEE7200069
:1023CC00FFF746FD011E01D072B6FEE72000FFF7B5
:1023DC0063FD002801D072B6FEE72000FFF71AFD5E
:1023EC00002801D072B6FEE71C481D4B0C2203607E
:1023FC00E1235B024360002342618360C36003619D
:10240C008361C361036243628362FFF7A9FC011E0F
:10241C0001D072B6FEE7134B022218680B008068DD
:10242C0000F014F909B0F0BD0010024016040000D1
:10243C000008005000040050D4000020002401408B
:10244C008000002000580040BC7D7010600200200D
:10245C00003001403801002000380140CC01002040
:10246C00003C01400C00002070470000F8B501272B
:10247C000E00140000257F427119A54201DB2000DB
:10248C00F8BD3B0001220248FFF7CCFB0135F3E716
:10249C003801002070B5FFF7B7FE8025A02408484E
:1024AC0000F0CAF8ED00E40529002000FEF780FBDF
:1024BC00FA208000FEF71EF8024800F031F8F3E72E
:1024CC00A0390008A639000870B500260C4D0D4C3B
:1024DC00641BA410A64209D10026FFF7C5FF0A4DC4
:1024EC000A4C641BA410A64205D170BDB300EB5876
:1024FC0098470136EEE7B300EB5898470136F2E700
:10250C004C3A00084C3A00084C3A00084C3A000887
:10251C0003008218934200D1704719700133F9E718
:10252C000FB40B4B13B51C68002C05D0A369002B02
:10253C0002D1200000F04EFB05AB2000049AA168EC
:10254C00019300F031FD16BC08BC04B01847C0461E
:10255C000C00002070B505000E00002804D0836923
:10256C00002B01D100F036FBAB69AC68002B02D11B
:10257C00280000F02FFB2D4B9C4222D16C68636E1F
:10258C00DB0705D4A3899B0502D4A06D00F0C3FB27
:10259C00A3891B0702D52369002B29D12100280010
:1025AC0000F072F9002823D001256D42636EDB0721
:1025BC0005D4A3899B0502D4A06D00F0ADFB2800C7
:1025CC0070BD1B4B9C4201D1AC68D8E7194B9C42A7
:1025DC00D5D1EC68D3E70136A360002B04DAA269ED
:1025EC009A4216DC0A2914D023685A1C22601970EE
:1025FC00A3683178013B0029EDD1A360002B0FDAE1
:10260C00280022000A3100F0E9F80A25431CCDD13C
:10261C00CAE72200280000F0E1F8431CE8D1C3E728
:10262C000A2523685A1C22601D70BFE7D0390008A8
:10263C00F0390008B039000810B5034B01001868D8
:10264C00FFF788FF10BDC0460C000020F0B51D0040
:10265C005D4B85B01E6804000F000092002E05D063
:10266C00B369002B02D1300000F0B4FA574B9C42F6
:10267C0061D17468009B022B05D0012B00D99DE021
:10268C00002D00DA9AE0636EDB0705D4A3899B0565
:10269C0002D4A06D00F03FFB2100300000F0F8F9EF
:1026AC00616B002908D023004433994202D03000DA
:1026BC0000F0AAFB002363630023A3616360A3897A
:1026CC001B0603D53000216900F09EFBA389404A0C
:1026DC001340A381009B022B00D169E003AB2100C6
:1026EC00300002AA00F01AFBA3890343A381002D3A
:1026FC002BD1029D280000F07DFB071E53D1029BBD
:10270C000193AB4249D101256D420223A289616E2E
:10271C0013430022A2602200473222602261012270
:10272C001BB2A3816261114234D19B0532D4A06DDE
:10273C0000F0F2FA2EE0274B9C4201D1B46899E7E5
:10274C00254B9C4296D1F46894E7002FD2D0B36904
:10275C00002B02D1300000F03DFA009B012B02D17E
:10276C00A2891343A381A289082311002760276142
:10277C00656119401A421FD0D3071BD500236D4247
:10278C00A360A561616E01230D001D40194218D193
:10279C009305CCD5280005B0F0BD019800F02AFBBC
:1027AC00019D071EAFD08023A2891343A381CEE7DE
:1027BC000025AAE7A560E5E7A160E3E701256D42E6
:1027CC00E8E70025E6E7C0460C000020D0390008F9
:1027DC005CF3FFFFF0390008B0390008F8B50500CC
:1027EC000E001400002804D08369002B01D100F0E6
:1027FC00F1F9224B9C422ED16C68A369A360A3898A
:10280C001B0732D52369002B2FD023682269F7B21E
:10281C00981A6369F6B2834205DC2100280000F0A7
:10282C0037F9002827D1A3680130013BA360236846
:10283C005A1C22601F706369834204D0A389DB0792
:10284C0007D50A2E05D12100280000F021F9002817
:10285C0011D13000F8BD0A4B9C4201D1AC68CCE7D9
:10286C00084B9C42C9D1EC68C7E72100280000F056
:10287C000BF80028C9D001267642EAE7D0390008C7
:10288C00F0390008B0390008374B70B51D680600E8
:10289C000C00002D05D0AB69002B02D1280000F0F4
:1028AC0099F9324B9C420FD16C680C23E25E93B2C7
:1028BC0011072DD4D90611D40923012033603733E5
:1028CC001343A381404270BD294B9C4201D1AC689B
:1028DC00EBE7284B9C42E8D1EC68E6E75B0713D5A5
:1028EC00616B002908D023004433994202D0300098
:1028FC0000F08AFA002363632422A3899343A38103
:10290C0000236360236923600823A2891343A381F6
:10291C002369002B0BD1A0218022A389890092006E
:10292C000B40934203D02100300000F01FFA0C2220
:10293C00A35E01201A0099B2024003420FD000227C
:10294C00A26062695242A261002022698242BAD11D
:10295C000A06B8D540221343A3810138B3E7880790
:10296C0000D46269A260EFE70C000020D0390008A7
:10297C00F0390008B0390008F7B58B8905000C0058
:10298C001A075FD44A68002A04DC0A6C002A01DCAE
:10299C000020FEBDE76A002FFAD0002280212E68AD
:1029AC002A601A0049010A400B4234D0606DA38999
:1029BC005B0706D56368C01A636B002B01D0236CD0
:1029CC00C01A0200216A00232800E76AB847A189CF
:1029DC00431C06D12B681D2B31D82C4ADA40D30767
:1029EC002DD50023636023692360CB0405D5431CDC
:1029FC0002D12B68002B00D16065616B2E60002921
:102A0C00C6D023004433994202D0280000F0FCF9D0
:102A1C0000206063BDE701232800216AB847431CEE
:102A2C00C5D12B68002BC2D01D2B01D0162B01D188
:102A3C002E60ADE74023A2891343A381A9E740236D
:102A4C000B43FAE70F69002FA2D00A680F60D21B64
:102A5C00019200229B0700D14A69A260019B002BC6
:102A6C0000DC95E73A002800019B216AA66AB04772
:102A7C00002806DC40230120A28940421343A38195
:102A8C0087E7019B3F181B1A0193E7E701004020E1
:102A9C000B6970B505000C00002B02D10025280035
:102AAC0070BD002804D08369002B01D100F092F88E
:102ABC00144B9C421BD16C680C22A35E002BEDD0F6
:102ACC00626ED20704D49B0502D4A06D00F023F9EA
:102ADC0028002100FFF750FF636E0500DB07DED4F2
:102AEC00A3899B05DBD4A06D00F016F9D7E7064B44
:102AFC009C4201D1AC68DFE7044B9C42DCD1EC6812
:102B0C00DAE7C046D0390008F0390008B0390008BF
:102B1C00002310B504000360436083608181436629
:102B2C001900C28103614361836108225C30FFF7A5
:102B3C00EFFC054B6362054B2462A362044BE3621A
:102B4C00044B236310BDC04651350008793500088D
:102B5C00B1350008DD35000810B5024900F0BAF8AF
:102B6C0010BDC0469D2A000870B568254A1E554305
:102B7C000E002900743100F091F9041E08D00021D8
:102B8C002A00016046600C30A0606832FFF7C0FC80
:102B9C00200070BD10B5024800F0BDF810BDC04655
:102BAC00CC02002010B5024800F0B6F810BDC046AB
:102BBC00CC02002010B5024800F0ADF810BDC046A4
:102BCC00C702002010B5024800F0A6F810BDC046A0
:102BDC00C702002013B50400FFF7ECFFA369002B1C
:102BEC0002D0FFF7EFFF13BDA364E3642365134B1F
:102BFC00134A1B68A2620193A34201D10123A36172
:102C0C00200000F01FF86060200000F01BF8A060AE
:102C1C00200000F017F800220421E0606068FFF744
:102C2C0077FF01220921A068FFF772FF022212210F
:102C3C00E068FFF76DFF0123A361D2E7AC39000810
:102C4C00652B0008F8B50700FFF7A4FF1F4B1E68A3
:102C5C00B369002B02D13000FFF7BCFF4836B468D3
:102C6C007368013B04D53368002B22D03668F6E735
:102C7C000C22A55E002D1AD12000154B5830E360B4
:102C8C00656600F047F8FFF78DFF20000822290049
:102C9C002560A560656025616561A5615C30FFF705
:102CAC0037FC6563A563A564E5642000F8BD683452
:102CBC00D7E704213800FFF757FF041E3060D5D149
:102CCC00FFF770FF0C233B60EFE7C046AC39000800
:102CDC000100FFFFF7B504000600002701914834FE
:102CEC006368A5680093009B013B009304D524689E
:102CFC00002CF5D13800FEBDAB89012B08D90E2272
:102D0C00AB5E013304D029003000019B9847074388
:102D1C006835E8E7704770477047000070B50E00E3
:102D2C001D000E23C95E140096B0002907DA00239B
:102D3C002B60B3891B0611D48023DB000FE06A469D
:102D4C0000F072FC0028F2DBF02301991B02194001
:102D5C00054BC9184B4259412960EDE7402300202F
:102D6C00236016B070BDC04600E0FFFFF7B5022629
:102D7C008B8905000C00334206D0230047332360B7
:102D8C00236101236361F7BD6A4601ABFFF7C6FF00
:102D9C0000990700280000F081F8002808D10C22C7
:102DAC00A35E9A05EFD4032293431E43A681E4E766
:102DBC000F4BAB628023A28920601343A381009B3D
:102DCC0020616361019B002B0DD028000E23E15E76
:102DDC0000F03CFC002806D00322A38993431A0080
:102DEC0001231343A381A0890743A781CBE7C046E6
:102DFC00652B000810B5034B0100186800F04EF865
:102E0C0010BDC0460C00002070B50500002910D084
:102E1C000C1F2368002B00DAE418280000F048FC93
:102E2C001D4A1368002B05D163601460280000F064
:102E3C0047FC70BDA34208D9216860188342F3D1C6
:102E4C0018685B6841182160EEE71A005B68002B7C
:102E5C0001D0A342F9D911685018A0420BD12068B7
:102E6C000918501811608342E0D118685B6841184A
:102E7C0011605360DAE7A04202D90C232B60D5E72E
:102E8C0021686018834203D118685B68411821607F
:102E9C0063605460CAE7C04670000020F8B5032395
:102EAC00CD1C9D43083506000C2D1FD20C25A942C4
:102EBC001ED8300000F0FCFB25490A681400002CD9
:102ECC001AD1244F3B68002B04D12100300000F0B4
:102EDC0027FB38602900300000F022FB431C2BD16B
:102EEC000C233000336000F0EBFB03E0002DDEDA46
:102EFC000C2333600020F8BD23685B1B19D40B2B0B
:102F0C0003D92360E418256003E06368A2420ED164
:102F1C000B60300000F0D4FB200007220B30231D87
:102F2C009043C21A9842E6D01B1AA350E3E75360B1
:102F3C00EFE722006468C2E70323C41C9C43A04251
:102F4C00E1D0211A300000F0EBFA431CDBD1C7E7CB
:102F5C007000002074000020936810B5013B936052
:102F6C00002B04DA9469A34207DB0A2905D0136805
:102F7C00581C10601970080010BDFFF72FFC0100E1
:102F8C00F9E7F8B506000F001400D518AC4201D1D2
:102F9C00002007E021783A003000FFF7DDFF013414
:102FAC00431CF3D1F8BD0000F0B5A1B006000C0035
:102FBC001F000392002804D08369002B01D1FFF776
:102FCC0009FE8E4B9C421CD17468636EDB0705D4E2
:102FDC00A3899B0502D4A06DFFF79DFEA3891B0757
:102FEC0002D52369002B1DD121003000FFF74CFCCA
:102FFC00002817D0636EDB070DD50120404221B0AD
:10300C00F0BD7F4B9C4201D1B468DEE77D4B9C4206
:10301C00DBD1F468D9E7A3899B05EED4A06DFFF74B
:10302C007BFEEAE7002308AD6B6120336B7610332F
:10303C00AB760797039F3B78002B01D0252B4ED105
:10304C00039BFB1A0593039B9F420DD0059B21000C
:10305C003000039AFFF795FF431C00D1B5E06A6975
:10306C00059B944663446B613B78002B00D1ACE02C
:10307C0001227B1C0393002352426A6004A9543240
:10308C0052182B60EB60AB601370AB65039B052291
:10309C0019785D4800F000FB039B5F1C002820D1D1
:1030AC002A68D30604D5532304A95B182021197070
:1030BC00130704D5532304A95B182B211970039B08
:1030CC001B782A2B16D00021EB68039F3A78781CCA
:1030DC00303A8446092A4FD9002911D117E001371B
:1030EC00A9E7494B2A68C01A0123834013432B607C
:1030FC000397CBE7079B191D1B680791002B01DB7E
:10310C000B9304E05B42EB60022313432B603B7890
:10311C002E2B0AD17B782A2B37D1079B02371A1D0D
:10312C001B680792002B2DDB099303223978374853
:10313C0000F0B2FA002807D0344B2A68C01A40239A
:10314C008340134301372B6039787B1C06223048AF
:10315C000393297600F0A0FA002845D02D4B002BC4
:10316C0027D10722079B07339343083307936B69D7
:10317C00049A9B186B615DE70A214B4367469B18C9
:10318C000939A3E701235B42CEE700231A0001377C
:10319C006B603978781C30398446092903D9002BA7
:1031AC00C3D00992C1E70A235A4367465218093B18
:1031BC00EFE707AB0093220029003000164B00E02C
:1031CC0000BF0490049B0133D1D1636EDB0705D49F
:1031DC00A3899B0502D4A06DFFF79EFDA3895B0616
:1031EC0000D50AE70D980AE707AB009322002900E7
:1031FC003000094B00F082F8E3E7C046D0390008F4
:10320C00F0390008B0390008103A0008163A0008E6
:10321C001A3A0008000000008F2F0008F7B51500BF
:10322C0001938A680B690C000090934200DA13003A
:10323C0022002B6043321278002A01D001332B601C
:10324C0023689B0602D52B6802332B602268062369
:10325C0017001F401A4227D0230043331B785A1EF5
:10326C0093412268920630D4220001990098089E5E
:10327C004332B047431C25D0062320682A68E168F6
:10328C0000250340042B03D18D1AEB43DB171D40A3
:10329C00A3682269934201DD9B1AED180027BD42F9
:1032AC0020D1002010E00137E3682A689B1ABB424A
:1032BC00D2DD2200012301990098089E1932B047F3
:1032CC00431CF0D101204042FEBD3020E1184331B7
:1032DC00087021005A1C45310978A2184332023378
:1032EC001170C1E72200012301990098089E1A323F
:1032FC00B047431CE6D00137D1E70000F0B58BB0E6
:10330C0006920A0043320793059004920A7E0C0041
:10331C00109B782A06D8622A08D8002A00D1C0E06F
:10332C00582A52D026004236327022E01000633800
:10333C001528F7D8FCF7C6FE16001F00F6FFF6FF9F
:10334C00F6FFF6FF1F00F6FFF6FFF6FFF6FFA800EC
:10335C0036009A00F6FFF6FFB900F6FF3600F6FFCE
:10336C00F6FF9E0026001A684236111D196013687C
:10337C0033700123A7E0086819680A1D05060BD5F0
:10338C000D681A60002D03DA2D23049A6D42137018
:10339C00614B0A27039332E00D681A604106F1D5A0
:1033AC002DB2EFE70D681968081D18602E0601D5BF
:1033BC000D6803E06D06FBD50D68ADB2564B0A27C0
:1033CC0003936F2A17D1082715E045310A70524A2A
:1033DC0003921A68216820CA1A60080650D5CB07D8
:1033EC0002D52023194321601027002D03D120235F
:1033FC0022689A4322602300002243331A706368C8
:10340C00A360002B03DB0422216891432160002D73
:10341C0002D1049E002B0CD0049E28003900FCF72E
:10342C00E1FE039B013E5B5C33702B0005009F4269
:10343C00F3D9082F09D12368DB0706D56368226905
:10344C00934202DC3023013E3370049B9B1B2361AF
:10345C00079B210000930598069B09AAFFF7DEFE47
:10346C00431C35D1012040420BB0F0BD202209682D
:10347C000A4322602200782145321170274AA7E7BF
:10348C004806ACD5ADB2AAE71A680D68101D49699B
:10349C00186013682E0601D5196002E06D06FBD585
:1034AC0019800023049E2361D2E71A68111D19604C
:1034BC00166800213000626800F0EEF8002801D098
:1034CC00801B6060636823610023049A1370BFE75C
:1034DC002369320006990598079DA847431CC1D063
:1034EC0023689B0715D4099BE0689842BCDA180046
:1034FC00BAE72200012306990598079E1932B047B6
:10350C00431CAFD00135E368099A9B1AAB42F0DC3F
:10351C00E9E70025F7E7C046213A0008323A0008EF
:10352C00002370B5064D040008002B6000F00CF968
:10353C00431C03D12B68002B00D0236070BDC04608
:10354C00D002002070B50C000E25495F00F0C0F8C9
:10355C00002803DB636D1B18636570BDA389024AE9
:10356C001340A381F9E7C046FFEFFFFFF8B51F003A
:10357C008B8905000C001600DB0505D50E23C95EF2
:10358C000022022300F074F8A389054A2800134096
:10359C00A38132000E23E15E3B0000F01FF8F8BD62
:1035AC00FFEFFFFF70B50C000E25495F00F060F8CF
:1035BC00A389421C03D1054A1340A38170BD80220C
:1035CC0052011343A3816065F8E7C046FFEFFFFF8C
:1035DC0010B50E23C95E00F015F810BD70B50400CF
:1035EC00080011001A000023054D2B60FEF73EFF6A
:1035FC00431C03D12B68002B00D0236070BDC04648
:10360C00D0020020002370B5064D040008002B608A
:10361C0000F072F8431C03D12B68002B00D0236000
:10362C0070BDC046D0020020002370B5064D0400CA
:10363C00080011002B6000F067F8431C03D12B68C5
:10364C00002B00D0236070BDD0020020002370B589
:10365C00064D040008002B6000F05EF8431C03D1FB
:10366C002B68002B00D0236070BDC046D002002018
:10367C0070B50400080011001A000023054D2B60E2
:10368C0000F052F8431C03D12B68002B00D02360B0
:10369C0070BDC046D0020020C9B28218904201D140
:1036AC000020704703788B42FBD00130F6E7000016
:1036BC0010B50248FFF72FFB10BDC046C802002012
:1036CC0010B50248FFF728FB10BDC046C802002009
:1036DC0070B50400080011001A000023054D2B6082
:1036EC0000F02AF8431C03D12B68002B00D0236078
:1036FC0070BDC046D002002058220120014B404230
:10370C001A607047D002002058220120014B404221
:10371C001A607047D00200205822024B00201A6019
:10372C007047C046D002002058220120014B404275
:10373C001A607047D002002058220120014B4042F1
:10374C001A607047D0020020044A03001068002859
:10375C0002D0C318136070470148FAE778000020C4
:10376C00D8020020F0B557464E464546DE46E0B539
:10377C0004000D009246994683B08B4230D82DD070
:10378C0049465046FCF73EFE290006002000FCF797
:10379C0039FE331A9846203B9B4633D45A4653463F
:1037AC00934042461F00534693401E00AF423AD806
:1037BC00AF4200D178E05B46A41BBD41002B00DA80
:1037CC0075E0002200230092019301235A46934096
:1037DC000193012342469340009328E08242CFD9C3
:1037EC0000220023009201930C9B002B01D01C6043
:1037FC005D600098019903B03CBC90469946A24686
:10380C00AB46F0BD424620239B1A5246DA40414655
:10381C0013004A468A40170042461F4353469340C2
:10382C001E00AF42C4D900220023009201934346EC
:10383C00002BD9D0FB0772081A4346467B080EE0D2
:10384C00AB4201D1A2420CD8A41A9D4101202419EB
:10385C006D410021013E24184D41002E06D0AB4293
:10386C00EED9013E24196D41002EF8D10098019932
:10387C005B4600196941002B24DB2B005A46444659
:10388C00D3402A00E2401C005B461500002B2ADBCB
:10389C0026009E40330026004746BE403200801A68
:1038AC009941009001919FE7A342BCD883E742461F
:1038BC00202300219B1A0022009101920122DA4060
:1038CC00019286E7424620239B1A2A0046469A40DC
:1038DC002300F340444613432A00E2401C005B469D
:1038EC001500002BD4DA42462F00202326009740E7
:0C38FC009B1ADE403B003343CDE7C04682
:103908000402080010101004101010021010100803
:10391800010002000400060008000A000C00100064
:103928002000400080000001080402040801010191
:103938000101010307010000000000000000000071
:10394800000000000000000000000000000000006F
:10395800000000000000000001000000020000005C
:10396800030000000400000006000000070000003B
:10397800080000000900000000000000000000002E
:10398800000000000000000001000000020000002C
:1039980003000000040000005345545550004C4FEC
:1039A8004F50200010000020000000000000000020
:1039B80000000000000000000000000000000000FF
:1039C80000000000000000000000000000000000EF
:1039D80000000000000000000000000000000000DF
:1039E80000000000000000000000000000000000CF
:1039F80000000000000000000000000000000000BF
:103A08000000000000000000232D302B2000686C0F
:103A18004C006566674546470030313233343536E9
:103A28003738394142434445460030313233343522
:0C3A38003637383961626364656600004F
:083A44002CFDFF7F01000000D2
:103A4C0001000000040000000024F400100000201D
:103A5C0000000000D0390008F0390008B039000827
:103A6C00000000000000000000000000000000004A
:103A7C00000000000000000000000000000000003A
:103A8C00000000000000000000000000000000002A
:103A9C00000000000000000000000000000000001A
:103AAC00000000000000000000000000000000000A
:0400000508001EF1E0
:00000001FF
